:100000001BC03DC056C031C0C1C02FC02EC02DC0C6
:100010002CC02BC02AC029C028C027C026C025C09C
:1000200024C023C022C021C020C072C07DC088C0AF
:100030008DC092C097C09CC011241FBECFEDCDBF14
:1000400010E0A0E6B0E0E8EDF1E002C005900D920E
:10005000A236B107D9F720E0A2E6B0E001C01D92B8
:10006000A336B207E1F739D0B5C0CACF80E489BF63
:100070008AE78BBD82E18ABD8CE08EBD08951F9218
:100080000F920FB60F9211248F93849B08C080E8C3
:100090008BBF86E0809360008BE08EBD03C081E063
:1000A0008093600078948F910F900FBE0F901F90F7
:1000B00018951F920F920FB60F9211248F9380E420
:1000C0008BBF82E0809360008CE08EBD78948F912E
:1000D0000F900FBE0F901F90189580EC8BBF8FE094
:1000E00085BFC4DF88B318BA8CE182BB83E681BBCD
:1000F0008FE187BB7894FFCFE09160008E2F90E076
:10010000FC013197E730F105B8F5EB5EFF4F09943C
:1001100088B318BA849B04C082E08093620031C027
:1001200081E0809362002DC0849B06C081E088BB83
:1001300083E08093620025C081E08093620021C04B
:1001400082E088BB84E0809362001BC084E088BBAF
:1001500085E08093620015C088E088BB82E08093D0
:1001600062000FC08FE188BB87E08093620009C006
:1001700086E08093620005C088B318BA81E080935E
:100180006200809162008093600008951F920F9238
:100190000FB60F9211242F933F934F935F936F935A
:1001A0007F938F939F93AF93BF93EF93FF93789435
:1001B000A3DFFF91EF91BF91AF919F918F917F91BD
:1001C0006F915F914F913F912F910F900FBE0F90C4
:0801D0001F901895F894FFCF71
:0201D800010024
:00000001FF
